{
  "abi": [
    {
      "inputs": [
        {
          "internalType": "address",
          "name": "_keeperRegistry",
          "type": "address"
        },
        {
          "internalType": "address",
          "name": "_feeDistributor",
          "type": "address"
        },
        {
          "internalType": "contract IERC20[]",
          "name": "_tokens",
          "type": "address[]"
        }
      ],
      "stateMutability": "nonpayable",
      "type": "constructor"
    },
    {
      "anonymous": false,
      "inputs": [
        {
          "indexed": true,
          "internalType": "address",
          "name": "token",
          "type": "address"
        },
        {
          "indexed": false,
          "internalType": "address",
          "name": "payee",
          "type": "address"
        },
        {
          "indexed": false,
          "internalType": "uint256",
          "name": "amount",
          "type": "uint256"
        }
      ],
      "name": "ERC20Swept",
      "type": "event"
    },
    {
      "anonymous": false,
      "inputs": [
        {
          "indexed": true,
          "internalType": "address",
          "name": "from",
          "type": "address"
        },
        {
          "indexed": true,
          "internalType": "address",
          "name": "to",
          "type": "address"
        }
      ],
      "name": "OwnershipTransferRequested",
      "type": "event"
    },
    {
      "anonymous": false,
      "inputs": [
        {
          "indexed": true,
          "internalType": "address",
          "name": "from",
          "type": "address"
        },
        {
          "indexed": true,
          "internalType": "address",
          "name": "to",
          "type": "address"
        }
      ],
      "name": "OwnershipTransferred",
      "type": "event"
    },
    {
      "anonymous": false,
      "inputs": [
        {
          "indexed": false,
          "internalType": "address",
          "name": "account",
          "type": "address"
        }
      ],
      "name": "Paused",
      "type": "event"
    },
    {
      "anonymous": false,
      "inputs": [
        {
          "indexed": false,
          "internalType": "address",
          "name": "account",
          "type": "address"
        }
      ],
      "name": "Unpaused",
      "type": "event"
    },
    {
      "anonymous": false,
      "inputs": [
        {
          "indexed": false,
          "internalType": "contract IERC20[]",
          "name": "tokens",
          "type": "address[]"
        },
        {
          "indexed": false,
          "internalType": "uint256[]",
          "name": "amounts",
          "type": "uint256[]"
        },
        {
          "indexed": false,
          "internalType": "uint256",
          "name": "timeCurser",
          "type": "uint256"
        },
        {
          "indexed": false,
          "internalType": "bool",
          "name": "half",
          "type": "bool"
        }
      ],
      "name": "feesPaid",
      "type": "event"
    },
    {
      "anonymous": false,
      "inputs": [
        {
          "indexed": false,
          "internalType": "address",
          "name": "oldAddress",
          "type": "address"
        },
        {
          "indexed": false,
          "internalType": "address",
          "name": "newAddress",
          "type": "address"
        }
      ],
      "name": "keeperRegistryUpdated",
      "type": "event"
    },
    {
      "anonymous": false,
      "inputs": [
        {
          "indexed": false,
          "internalType": "contract IERC20[]",
          "name": "tokens",
          "type": "address[]"
        }
      ],
      "name": "tokensSet",
      "type": "event"
    },
    {
      "inputs": [],
      "name": "acceptOwnership",
      "outputs": [],
      "stateMutability": "nonpayable",
      "type": "function"
    },
    {
      "inputs": [
        {
          "internalType": "bytes",
          "name": "",
          "type": "bytes"
        }
      ],
      "name": "checkUpkeep",
      "outputs": [
        {
          "internalType": "bool",
          "name": "upkeepNeeded",
          "type": "bool"
        },
        {
          "internalType": "bytes",
          "name": "performData",
          "type": "bytes"
        }
      ],
      "stateMutability": "view",
      "type": "function"
    },
    {
      "inputs": [],
      "name": "feeDistributor",
      "outputs": [
        {
          "internalType": "contract IFeeDistributor",
          "name": "",
          "type": "address"
        }
      ],
      "stateMutability": "view",
      "type": "function"
    },
    {
      "inputs": [],
      "name": "getTokens",
      "outputs": [
        {
          "internalType": "address[]",
          "name": "",
          "type": "address[]"
        }
      ],
      "stateMutability": "view",
      "type": "function"
    },
    {
      "inputs": [],
      "name": "half",
      "outputs": [
        {
          "internalType": "bool",
          "name": "",
          "type": "bool"
        }
      ],
      "stateMutability": "view",
      "type": "function"
    },
    {
      "inputs": [],
      "name": "keeperRegistry",
      "outputs": [
        {
          "internalType": "address",
          "name": "",
          "type": "address"
        }
      ],
      "stateMutability": "view",
      "type": "function"
    },
    {
      "inputs": [],
      "name": "lastRunTimeCurser",
      "outputs": [
        {
          "internalType": "uint256",
          "name": "",
          "type": "uint256"
        }
      ],
      "stateMutability": "view",
      "type": "function"
    },
    {
      "inputs": [
        {
          "internalType": "uint256",
          "name": "",
          "type": "uint256"
        }
      ],
      "name": "managedTokens",
      "outputs": [
        {
          "internalType": "contract IERC20",
          "name": "",
          "type": "address"
        }
      ],
      "stateMutability": "view",
      "type": "function"
    },
    {
      "inputs": [],
      "name": "owner",
      "outputs": [
        {
          "internalType": "address",
          "name": "",
          "type": "address"
        }
      ],
      "stateMutability": "view",
      "type": "function"
    },
    {
      "inputs": [],
      "name": "pause",
      "outputs": [],
      "stateMutability": "nonpayable",
      "type": "function"
    },
    {
      "inputs": [],
      "name": "paused",
      "outputs": [
        {
          "internalType": "bool",
          "name": "",
          "type": "bool"
        }
      ],
      "stateMutability": "view",
      "type": "function"
    },
    {
      "inputs": [],
      "name": "payFees",
      "outputs": [],
      "stateMutability": "nonpayable",
      "type": "function"
    },
    {
      "inputs": [
        {
          "internalType": "bytes",
          "name": "performData",
          "type": "bytes"
        }
      ],
      "name": "performUpkeep",
      "outputs": [],
      "stateMutability": "nonpayable",
      "type": "function"
    },
    {
      "inputs": [
        {
          "internalType": "address",
          "name": "_keeperRegistry",
          "type": "address"
        }
      ],
      "name": "setKeeperRegistry",
      "outputs": [],
      "stateMutability": "nonpayable",
      "type": "function"
    },
    {
      "inputs": [
        {
          "internalType": "contract IERC20[]",
          "name": "tokens",
          "type": "address[]"
        }
      ],
      "name": "setTokens",
      "outputs": [],
      "stateMutability": "nonpayable",
      "type": "function"
    },
    {
      "inputs": [
        {
          "internalType": "address",
          "name": "token",
          "type": "address"
        },
        {
          "internalType": "address",
          "name": "payee",
          "type": "address"
        }
      ],
      "name": "sweep",
      "outputs": [],
      "stateMutability": "nonpayable",
      "type": "function"
    },
    {
      "inputs": [
        {
          "internalType": "address",
          "name": "to",
          "type": "address"
        }
      ],
      "name": "transferOwnership",
      "outputs": [],
      "stateMutability": "nonpayable",
      "type": "function"
    },
    {
      "inputs": [],
      "name": "unpause",
      "outputs": [],
      "stateMutability": "nonpayable",
      "type": "function"
    },
    {
      "inputs": [
        {
          "internalType": "uint256",
          "name": "amount",
          "type": "uint256"
        },
        {
          "internalType": "address payable",
          "name": "payee",
          "type": "address"
        }
      ],
      "name": "withdraw",
      "outputs": [],
      "stateMutability": "nonpayable",
      "type": "function"
    }
  ],
  "bytecode": {
    "object": "0x60806040523480156200001157600080fd5b50604051620020e6380380620020e68339810160408190526200003491620004af565b33806000816200008b5760405162461bcd60e51b815260206004820152601860248201527f43616e6e6f7420736574206f776e657220746f207a65726f000000000000000060448201526064015b60405180910390fd5b600080546001600160a01b0319166001600160a01b0384811691909117909155811615620000be57620000be816200011a565b50506001805460ff60a01b1916905550620000d983620001c6565b60058054610100600160a81b0319166101006001600160a01b03851602179055620001048162000239565b50506005805460ff19166001179055506200069f565b6001600160a01b038116331415620001755760405162461bcd60e51b815260206004820152601760248201527f43616e6e6f74207472616e7366657220746f2073656c66000000000000000000604482015260640162000082565b600180546001600160a01b0319166001600160a01b0383811691821790925560008054604051929316917fed8889f560326eb138920d842192f0eb3dd22b4f139c87a2c57538e05bae12789190a350565b620001d0620003be565b600254604080516001600160a01b03928316815291831660208301527f5e67d455b7f0a74c0508e807d6e41bf2722c25fc670fa7276229bf9df459e244910160405180910390a1600280546001600160a01b0319166001600160a01b0392909216919091179055565b62000243620003be565b600181511015620002975760405162461bcd60e51b815260206004820181905260248201527f4d7573742070726f76696465206174206c65617374206f6e636520746f6b656e604482015260640162000082565b7f9eae006c376c43541d4048d8b4bad2b209db084fcffbf07c1dc09babdb746e6f81604051620002c89190620005e1565b60405180910390a160005b8151811015620003a457818181518110620002f257620002f26200065a565b602090810291909101015160055460405163095ea7b360e01b81526001600160a01b0361010090920482166004820152600160801b602482015291169063095ea7b390604401602060405180830381600087803b1580156200035357600080fd5b505af115801562000368573d6000803e3d6000fd5b505050506040513d601f19601f820116820180604052508101906200038e9190620005b6565b50806200039b8162000630565b915050620002d3565b508051620003ba9060049060208401906200041c565b5050565b6000546001600160a01b031633146200041a5760405162461bcd60e51b815260206004820152601660248201527f4f6e6c792063616c6c61626c65206279206f776e657200000000000000000000604482015260640162000082565b565b82805482825590600052602060002090810192821562000474579160200282015b828111156200047457825182546001600160a01b0319166001600160a01b039091161782556020909201916001909101906200043d565b506200048292915062000486565b5090565b5b8082111562000482576000815560010162000487565b8051620004aa8162000686565b919050565b600080600060608486031215620004c557600080fd5b8351620004d28162000686565b80935050602080850151620004e78162000686565b60408601519093506001600160401b03808211156200050557600080fd5b818701915087601f8301126200051a57600080fd5b8151818111156200052f576200052f62000670565b8060051b604051601f19603f8301168101818110858211171562000557576200055762000670565b604052828152858101935084860182860187018c10156200057757600080fd5b600095505b83861015620005a55762000590816200049d565b8552600195909501949386019386016200057c565b508096505050505050509250925092565b600060208284031215620005c957600080fd5b81518015158114620005da57600080fd5b9392505050565b6020808252825182820181905260009190848201906040850190845b81811015620006245783516001600160a01b031683529284019291840191600101620005fd565b50909695505050505050565b60006000198214156200065357634e487b7160e01b600052601160045260246000fd5b5060010190565b634e487b7160e01b600052603260045260246000fd5b634e487b7160e01b600052604160045260246000fd5b6001600160a01b03811681146200069c57600080fd5b50565b611a3780620006af6000396000f3fe608060405234801561001057600080fd5b50600436106101205760003560e01c806379ba5097116100ad578063aa6ca80811610071578063aa6ca8081461023e578063b8dc491b14610253578063c77864ce14610266578063f2fde38b1461027d578063f6a6462c1461029057600080fd5b806379ba5097146101f757806383e22774146101ff5780638456cb59146102125780638da5cb5b1461021a578063a128c4d21461022b57600080fd5b80634585e33b116100f45780634585e33b1461018a5780635c975abb1461019d578063625adaf2146101bb57806362779e15146101ce5780636e04ff0d146101d657600080fd5b8062f714ce146101255780630d43e8ad1461013a5780631bb7ad6b1461016f5780633f4ba83a14610182575b600080fd5b610138610133366004611730565b61029d565b005b6005546101529061010090046001600160a01b031681565b6040516001600160a01b0390911681526020015b60405180910390f35b61015261017d3660046116fe565b61032a565b610138610354565b61013861019836600461168c565b610366565b600154600160a01b900460ff165b6040519015158152602001610166565b6101386101c936600461159e565b61057a565b6101386106ec565b6101e96101e436600461168c565b610704565b604051610166929190611917565b61013861087e565b600254610152906001600160a01b031681565b610138610928565b6000546001600160a01b0316610152565b610138610239366004611541565b610938565b6102466109a9565b6040516101669190611811565b610138610261366004611565565b610ad3565b61026f60035481565b604051908152602001610166565b61013861028b366004611541565b610baa565b6005546101ab9060ff1681565b6102a5610bbe565b6001600160a01b0381166102ef5760405162461bcd60e51b815260206004820152600c60248201526b7a65726f206164647265737360a01b60448201526064015b60405180910390fd5b6040516001600160a01b0382169083156108fc029084906000818181858888f19350505050158015610325573d6000803e3d6000fd5b505050565b6004818154811061033a57600080fd5b6000918252602090912001546001600160a01b0316905081565b61035c610bbe565b610364610c11565b565b6002546001600160a01b0316331480159061038c57506000546001600160a01b03163314155b156103d95760405162461bcd60e51b815260206004820152601d60248201527f4f6e6c79207468652052656769737472792063616e20646f207468617400000060448201526064016102e6565b6103e1610c66565b6000805b60045481101561053857600060048281548110610404576104046119c0565b6000918252602090912001546040516370a0823160e01b81523060048201526001600160a01b03909116906370a082319060240160206040518083038186803b15801561045057600080fd5b505afa158015610464573d6000803e3d6000fd5b505050506040513d601f19601f820116820180604052508101906104889190611717565b111561049357600191505b600560019054906101000a90046001600160a01b03166001600160a01b03166382aa5ad46040518163ffffffff1660e01b815260040160206040518083038186803b1580156104e157600080fd5b505afa1580156104f5573d6000803e3d6000fd5b505050506040513d601f19601f820116820180604052508101906105199190611717565b6003541061052657600091505b8061053081611997565b9150506103e5565b50806105725760405162461bcd60e51b81526020600482015260096024820152684e6f7420726561647960b81b60448201526064016102e6565b610325610cb3565b610582610bbe565b6001815110156105d45760405162461bcd60e51b815260206004820181905260248201527f4d7573742070726f76696465206174206c65617374206f6e636520746f6b656e60448201526064016102e6565b7f9eae006c376c43541d4048d8b4bad2b209db084fcffbf07c1dc09babdb746e6f81604051610603919061185e565b60405180910390a160005b81518110156106d457818181518110610629576106296119c0565b602090810291909101015160055460405163095ea7b360e01b81526001600160a01b0361010090920482166004820152600160801b602482015291169063095ea7b390604401602060405180830381600087803b15801561068957600080fd5b505af115801561069d573d6000803e3d6000fd5b505050506040513d601f19601f820116820180604052508101906106c1919061166a565b50806106cc81611997565b91505061060e565b5080516106e89060049060208401906114b7565b5050565b6106f4610bbe565b6106fc610c66565b610364610cb3565b60006060610710610c66565b60005b60045481101561086657600060048281548110610732576107326119c0565b6000918252602090912001546040516370a0823160e01b81523060048201526001600160a01b03909116906370a082319060240160206040518083038186803b15801561077e57600080fd5b505afa158015610792573d6000803e3d6000fd5b505050506040513d601f19601f820116820180604052508101906107b69190611717565b11156107c157600192505b600560019054906101000a90046001600160a01b03166001600160a01b03166382aa5ad46040518163ffffffff1660e01b815260040160206040518083038186803b15801561080f57600080fd5b505afa158015610823573d6000803e3d6000fd5b505050506040513d601f19601f820116820180604052508101906108479190611717565b6003541061085457600092505b8061085e81611997565b915050610713565b50506040805160208101909152600081529250929050565b6001546001600160a01b031633146108d15760405162461bcd60e51b815260206004820152601660248201527526bab9ba10313290383937b837b9b2b21037bbb732b960511b60448201526064016102e6565b60008054336001600160a01b0319808316821784556001805490911690556040516001600160a01b0390921692909183917f8be0079c531659141344cd1fd0a4f28419497f9722a3daafe3b4186f6b6457e091a350565b610930610bbe565b6103646110c9565b610940610bbe565b600254604080516001600160a01b03928316815291831660208301527f5e67d455b7f0a74c0508e807d6e41bf2722c25fc670fa7276229bf9df459e244910160405180910390a1600280546001600160a01b0319166001600160a01b0392909216919091179055565b606060006004805480602002602001604051908101604052809291908181526020018280548015610a0357602002820191906000526020600020905b81546001600160a01b031681526001909101906020018083116109e5575b505050505090506000815167ffffffffffffffff811115610a2657610a266119d6565b604051908082528060200260200182016040528015610a4f578160200160208202803683370190505b50905060005b600454811015610acc5760048181548110610a7257610a726119c0565b9060005260206000200160009054906101000a90046001600160a01b0316828281518110610aa257610aa26119c0565b6001600160a01b039092166020928302919091019091015280610ac481611997565b915050610a55565b5092915050565b610adb610bbe565b6040516370a0823160e01b81523060048201526000906001600160a01b038416906370a082319060240160206040518083038186803b158015610b1d57600080fd5b505afa158015610b31573d6000803e3d6000fd5b505050506040513d601f19601f82011682018060405250810190610b559190611717565b604080516001600160a01b03858116825260208201849052929350918516917f17ebca81c5f7ed9c553f76ca3f4a03b93af7d9ea1f3348a879306375452ca46f910160405180910390a261032583838361110c565b610bb2610bbe565b610bbb8161115e565b50565b6000546001600160a01b031633146103645760405162461bcd60e51b815260206004820152601660248201527527b7363c9031b0b63630b1363290313c9037bbb732b960511b60448201526064016102e6565b610c19611208565b6001805460ff60a01b191690557f5db9ee0a495bf2e6ff9c91a7834c1ba4fdd244a5e8aa4e537bd38aeae4b073aa335b6040516001600160a01b03909116815260200160405180910390a1565b600154600160a01b900460ff16156103645760405162461bcd60e51b815260206004820152601060248201526f14185d5cd8589b194e881c185d5cd95960821b60448201526064016102e6565b610cbb610c66565b6000600560019054906101000a90046001600160a01b03166001600160a01b03166382aa5ad46040518163ffffffff1660e01b815260040160206040518083038186803b158015610d0b57600080fd5b505afa158015610d1f573d6000803e3d6000fd5b505050506040513d601f19601f82011682018060405250810190610d439190611717565b90508060035410610dbc5760405162461bcd60e51b815260206004820152603860248201527f54696d65437572736572206861736e2774206368616e6765642e2020416c726560448201527f6164792072616e206f6e636520746869732065706f63682e000000000000000060648201526084016102e6565b60006004805480602002602001604051908101604052809291908181526020018280548015610e1457602002820191906000526020600020905b81546001600160a01b03168152600190910190602001808311610df6575b50505050509050600080825167ffffffffffffffff811115610e3857610e386119d6565b604051908082528060200260200182016040528015610e61578160200160208202803683370190505b5090506000805b8451811015610ff85760055460ff1615610f24576002858281518110610e9057610e906119c0565b60209081029190910101516040516370a0823160e01b81523060048201526001600160a01b03909116906370a082319060240160206040518083038186803b158015610edb57600080fd5b505afa158015610eef573d6000803e3d6000fd5b505050506040513d601f19601f82011682018060405250810190610f139190611717565b610f1d9190611945565b9150610fbc565b848181518110610f3657610f366119c0565b60209081029190910101516040516370a0823160e01b81523060048201526001600160a01b03909116906370a082319060240160206040518083038186803b158015610f8157600080fd5b505afa158015610f95573d6000803e3d6000fd5b505050506040513d601f19601f82011682018060405250810190610fb99190611717565b91505b8115610fe6576001935081838281518110610fd957610fd96119c0565b6020026020010181815250505b80610ff081611997565b915050610e68565b5082156110c257600554604051637b8d622160e01b81526101009091046001600160a01b031690637b8d62219061103590600490869082016118af565b600060405180830381600087803b15801561104f57600080fd5b505af1158015611063573d6000803e3d6000fd5b50506005546040517facd19320e226dea93ae08c107b2e88aa5681c2c36d425adb2cda464ea4f4d64893506110a29250879186918a9160ff1690611871565b60405180910390a16005805460ff19811660ff9091161517905560038590555b5050505050565b6110d1610c66565b6001805460ff60a01b1916600160a01b1790557f62e78cea01bee320cd4e420270b5ea74000d11b0c9f74754ebdbfc544b05a258610c493390565b604080516001600160a01b038416602482015260448082018490528251808303909101815260649091019091526020810180516001600160e01b031663a9059cbb60e01b179052610325908490611258565b6001600160a01b0381163314156111b75760405162461bcd60e51b815260206004820152601760248201527f43616e6e6f74207472616e7366657220746f2073656c6600000000000000000060448201526064016102e6565b600180546001600160a01b0319166001600160a01b0383811691821790925560008054604051929316917fed8889f560326eb138920d842192f0eb3dd22b4f139c87a2c57538e05bae12789190a350565b600154600160a01b900460ff166103645760405162461bcd60e51b815260206004820152601460248201527314185d5cd8589b194e881b9bdd081c185d5cd95960621b60448201526064016102e6565b60006112ad826040518060400160405280602081526020017f5361666545524332303a206c6f772d6c6576656c2063616c6c206661696c6564815250856001600160a01b031661132a9092919063ffffffff16565b80519091501561032557808060200190518101906112cb919061166a565b6103255760405162461bcd60e51b815260206004820152602a60248201527f5361666545524332303a204552433230206f7065726174696f6e20646964206e6044820152691bdd081cdd58d8d9595960b21b60648201526084016102e6565b60606113398484600085611341565b949350505050565b6060824710156113a25760405162461bcd60e51b815260206004820152602660248201527f416464726573733a20696e73756666696369656e742062616c616e636520666f6044820152651c8818d85b1b60d21b60648201526084016102e6565b600080866001600160a01b031685876040516113be91906117f5565b60006040518083038185875af1925050503d80600081146113fb576040519150601f19603f3d011682016040523d82523d6000602084013e611400565b606091505b50915091506114118783838761141c565b979650505050505050565b60608315611488578251611481576001600160a01b0385163b6114815760405162461bcd60e51b815260206004820152601d60248201527f416464726573733a2063616c6c20746f206e6f6e2d636f6e747261637400000060448201526064016102e6565b5081611339565b611339838381511561149d5781518083602001fd5b8060405162461bcd60e51b81526004016102e69190611932565b82805482825590600052602060002090810192821561150c579160200282015b8281111561150c57825182546001600160a01b0319166001600160a01b039091161782556020909201916001909101906114d7565b5061151892915061151c565b5090565b5b80821115611518576000815560010161151d565b803561153c816119ec565b919050565b60006020828403121561155357600080fd5b813561155e816119ec565b9392505050565b6000806040838503121561157857600080fd5b8235611583816119ec565b91506020830135611593816119ec565b809150509250929050565b600060208083850312156115b157600080fd5b823567ffffffffffffffff808211156115c957600080fd5b818501915085601f8301126115dd57600080fd5b8135818111156115ef576115ef6119d6565b8060051b604051601f19603f83011681018181108582111715611614576116146119d6565b604052828152858101935084860182860187018a101561163357600080fd5b600095505b8386101561165d5761164981611531565b855260019590950194938601938601611638565b5098975050505050505050565b60006020828403121561167c57600080fd5b8151801515811461155e57600080fd5b6000806020838503121561169f57600080fd5b823567ffffffffffffffff808211156116b757600080fd5b818501915085601f8301126116cb57600080fd5b8135818111156116da57600080fd5b8660208285010111156116ec57600080fd5b60209290920196919550909350505050565b60006020828403121561171057600080fd5b5035919050565b60006020828403121561172957600080fd5b5051919050565b6000806040838503121561174357600080fd5b823591506020830135611593816119ec565b600081518084526020808501945080840160005b8381101561178e5781516001600160a01b031687529582019590820190600101611769565b509495945050505050565b600081518084526020808501945080840160005b8381101561178e578151875295820195908201906001016117ad565b600081518084526117e1816020860160208601611967565b601f01601f19169290920160200192915050565b60008251611807818460208701611967565b9190910192915050565b6020808252825182820181905260009190848201906040850190845b818110156118525783516001600160a01b03168352928401929184019160010161182d565b50909695505050505050565b60208152600061155e6020830184611755565b6080815260006118846080830187611755565b82810360208401526118968187611799565b6040840195909552505090151560609091015292915050565b6000604082016040835280855480835260608501915086600052602092508260002060005b828110156118f95781546001600160a01b0316845292840192600191820191016118d4565b5050508381038285015261190d8186611799565b9695505050505050565b821515815260406020820152600061133960408301846117c9565b60208152600061155e60208301846117c9565b60008261196257634e487b7160e01b600052601260045260246000fd5b500490565b60005b8381101561198257818101518382015260200161196a565b83811115611991576000848401525b50505050565b60006000198214156119b957634e487b7160e01b600052601160045260246000fd5b5060010190565b634e487b7160e01b600052603260045260246000fd5b634e487b7160e01b600052604160045260246000fd5b6001600160a01b0381168114610bbb57600080fdfea2646970667358221220f60dbcfac98af935e0417c2338dcaf5b02f6cc3dd6cecfda91f8b36f0367bdaf64736f6c63430008060033",
    "linkReferences": {}
  },
  "methodIdentifiers": {
    "acceptOwnership()": "79ba5097",
    "checkUpkeep(bytes)": "6e04ff0d",
    "feeDistributor()": "0d43e8ad",
    "getTokens()": "aa6ca808",
    "half()": "f6a6462c",
    "keeperRegistry()": "83e22774",
    "lastRunTimeCurser()": "c77864ce",
    "managedTokens(uint256)": "1bb7ad6b",
    "owner()": "8da5cb5b",
    "pause()": "8456cb59",
    "paused()": "5c975abb",
    "payFees()": "62779e15",
    "performUpkeep(bytes)": "4585e33b",
    "setKeeperRegistry(address)": "a128c4d2",
    "setTokens(address[])": "625adaf2",
    "sweep(address,address)": "b8dc491b",
    "transferOwnership(address)": "f2fde38b",
    "unpause()": "3f4ba83a",
    "withdraw(uint256,address)": "00f714ce"
  },
  "id": 1
}