{
  "abi": [
    {
      "inputs": [
        {
          "internalType": "address",
          "name": "_keeperRegistry",
          "type": "address"
        },
        {
          "internalType": "address",
          "name": "_feeDistributor",
          "type": "address"
        },
        {
          "internalType": "contract IERC20[]",
          "name": "_tokens",
          "type": "address[]"
        }
      ],
      "stateMutability": "nonpayable",
      "type": "constructor"
    },
    {
      "anonymous": false,
      "inputs": [
        {
          "indexed": true,
          "internalType": "address",
          "name": "token",
          "type": "address"
        },
        {
          "indexed": false,
          "internalType": "address",
          "name": "payee",
          "type": "address"
        },
        {
          "indexed": false,
          "internalType": "uint256",
          "name": "amount",
          "type": "uint256"
        }
      ],
      "name": "ERC20Swept",
      "type": "event"
    },
    {
      "anonymous": false,
      "inputs": [
        {
          "indexed": true,
          "internalType": "address",
          "name": "from",
          "type": "address"
        },
        {
          "indexed": true,
          "internalType": "address",
          "name": "to",
          "type": "address"
        }
      ],
      "name": "OwnershipTransferRequested",
      "type": "event"
    },
    {
      "anonymous": false,
      "inputs": [
        {
          "indexed": true,
          "internalType": "address",
          "name": "from",
          "type": "address"
        },
        {
          "indexed": true,
          "internalType": "address",
          "name": "to",
          "type": "address"
        }
      ],
      "name": "OwnershipTransferred",
      "type": "event"
    },
    {
      "anonymous": false,
      "inputs": [
        {
          "indexed": false,
          "internalType": "address",
          "name": "account",
          "type": "address"
        }
      ],
      "name": "Paused",
      "type": "event"
    },
    {
      "anonymous": false,
      "inputs": [
        {
          "indexed": false,
          "internalType": "address",
          "name": "account",
          "type": "address"
        }
      ],
      "name": "Unpaused",
      "type": "event"
    },
    {
      "anonymous": false,
      "inputs": [
        {
          "indexed": false,
          "internalType": "contract IERC20[]",
          "name": "tokens",
          "type": "address[]"
        },
        {
          "indexed": false,
          "internalType": "uint256[]",
          "name": "amounts",
          "type": "uint256[]"
        },
        {
          "indexed": false,
          "internalType": "uint256",
          "name": "timeCurser",
          "type": "uint256"
        },
        {
          "indexed": false,
          "internalType": "bool",
          "name": "half",
          "type": "bool"
        }
      ],
      "name": "feesPaid",
      "type": "event"
    },
    {
      "anonymous": false,
      "inputs": [
        {
          "indexed": false,
          "internalType": "address",
          "name": "oldAddress",
          "type": "address"
        },
        {
          "indexed": false,
          "internalType": "address",
          "name": "newAddress",
          "type": "address"
        }
      ],
      "name": "keeperRegistryUpdated",
      "type": "event"
    },
    {
      "anonymous": false,
      "inputs": [
        {
          "indexed": false,
          "internalType": "contract IERC20[]",
          "name": "tokens",
          "type": "address[]"
        }
      ],
      "name": "tokensSet",
      "type": "event"
    },
    {
      "inputs": [],
      "name": "acceptOwnership",
      "outputs": [],
      "stateMutability": "nonpayable",
      "type": "function"
    },
    {
      "inputs": [
        {
          "internalType": "bytes",
          "name": "",
          "type": "bytes"
        }
      ],
      "name": "checkUpkeep",
      "outputs": [
        {
          "internalType": "bool",
          "name": "upkeepNeeded",
          "type": "bool"
        },
        {
          "internalType": "bytes",
          "name": "performData",
          "type": "bytes"
        }
      ],
      "stateMutability": "view",
      "type": "function"
    },
    {
      "inputs": [],
      "name": "feeDistributor",
      "outputs": [
        {
          "internalType": "contract IFeeDistributor",
          "name": "",
          "type": "address"
        }
      ],
      "stateMutability": "view",
      "type": "function"
    },
    {
      "inputs": [],
      "name": "getTokens",
      "outputs": [
        {
          "internalType": "address[]",
          "name": "",
          "type": "address[]"
        }
      ],
      "stateMutability": "view",
      "type": "function"
    },
    {
      "inputs": [],
      "name": "half",
      "outputs": [
        {
          "internalType": "bool",
          "name": "",
          "type": "bool"
        }
      ],
      "stateMutability": "view",
      "type": "function"
    },
    {
      "inputs": [],
      "name": "keeperRegistry",
      "outputs": [
        {
          "internalType": "address",
          "name": "",
          "type": "address"
        }
      ],
      "stateMutability": "view",
      "type": "function"
    },
    {
      "inputs": [],
      "name": "lastRunTimeCurser",
      "outputs": [
        {
          "internalType": "uint256",
          "name": "",
          "type": "uint256"
        }
      ],
      "stateMutability": "view",
      "type": "function"
    },
    {
      "inputs": [
        {
          "internalType": "uint256",
          "name": "",
          "type": "uint256"
        }
      ],
      "name": "managedTokens",
      "outputs": [
        {
          "internalType": "contract IERC20",
          "name": "",
          "type": "address"
        }
      ],
      "stateMutability": "view",
      "type": "function"
    },
    {
      "inputs": [],
      "name": "owner",
      "outputs": [
        {
          "internalType": "address",
          "name": "",
          "type": "address"
        }
      ],
      "stateMutability": "view",
      "type": "function"
    },
    {
      "inputs": [],
      "name": "paused",
      "outputs": [
        {
          "internalType": "bool",
          "name": "",
          "type": "bool"
        }
      ],
      "stateMutability": "view",
      "type": "function"
    },
    {
      "inputs": [],
      "name": "payFees",
      "outputs": [],
      "stateMutability": "nonpayable",
      "type": "function"
    },
    {
      "inputs": [
        {
          "internalType": "bytes",
          "name": "performData",
          "type": "bytes"
        }
      ],
      "name": "performUpkeep",
      "outputs": [],
      "stateMutability": "nonpayable",
      "type": "function"
    },
    {
      "inputs": [
        {
          "internalType": "address",
          "name": "_keeperRegistry",
          "type": "address"
        }
      ],
      "name": "setKeeperRegistry",
      "outputs": [],
      "stateMutability": "nonpayable",
      "type": "function"
    },
    {
      "inputs": [
        {
          "internalType": "contract IERC20[]",
          "name": "tokens",
          "type": "address[]"
        }
      ],
      "name": "setTokens",
      "outputs": [],
      "stateMutability": "nonpayable",
      "type": "function"
    },
    {
      "inputs": [
        {
          "internalType": "address",
          "name": "token",
          "type": "address"
        },
        {
          "internalType": "address",
          "name": "payee",
          "type": "address"
        }
      ],
      "name": "sweep",
      "outputs": [],
      "stateMutability": "nonpayable",
      "type": "function"
    },
    {
      "inputs": [
        {
          "internalType": "address",
          "name": "to",
          "type": "address"
        }
      ],
      "name": "transferOwnership",
      "outputs": [],
      "stateMutability": "nonpayable",
      "type": "function"
    },
    {
      "inputs": [],
      "name": "unpause",
      "outputs": [],
      "stateMutability": "nonpayable",
      "type": "function"
    },
    {
      "inputs": [
        {
          "internalType": "uint256",
          "name": "amount",
          "type": "uint256"
        },
        {
          "internalType": "address payable",
          "name": "payee",
          "type": "address"
        }
      ],
      "name": "withdraw",
      "outputs": [],
      "stateMutability": "nonpayable",
      "type": "function"
    }
  ],
  "bytecode": {
    "object": "0x60806040523480156200001157600080fd5b5060405162002075380380620020758339810160408190526200003491620004af565b33806000816200008b5760405162461bcd60e51b815260206004820152601860248201527f43616e6e6f7420736574206f776e657220746f207a65726f000000000000000060448201526064015b60405180910390fd5b600080546001600160a01b0319166001600160a01b0384811691909117909155811615620000be57620000be816200011a565b50506001805460ff60a01b1916905550620000d983620001c6565b60058054610100600160a81b0319166101006001600160a01b03851602179055620001048162000239565b50506005805460ff19166001179055506200069f565b6001600160a01b038116331415620001755760405162461bcd60e51b815260206004820152601760248201527f43616e6e6f74207472616e7366657220746f2073656c66000000000000000000604482015260640162000082565b600180546001600160a01b0319166001600160a01b0383811691821790925560008054604051929316917fed8889f560326eb138920d842192f0eb3dd22b4f139c87a2c57538e05bae12789190a350565b620001d0620003be565b600254604080516001600160a01b03928316815291831660208301527f5e67d455b7f0a74c0508e807d6e41bf2722c25fc670fa7276229bf9df459e244910160405180910390a1600280546001600160a01b0319166001600160a01b0392909216919091179055565b62000243620003be565b600181511015620002975760405162461bcd60e51b815260206004820181905260248201527f4d7573742070726f76696465206174206c65617374206f6e636520746f6b656e604482015260640162000082565b7f9eae006c376c43541d4048d8b4bad2b209db084fcffbf07c1dc09babdb746e6f81604051620002c89190620005e1565b60405180910390a160005b8151811015620003a457818181518110620002f257620002f26200065a565b602090810291909101015160055460405163095ea7b360e01b81526001600160a01b0361010090920482166004820152600160801b602482015291169063095ea7b390604401602060405180830381600087803b1580156200035357600080fd5b505af115801562000368573d6000803e3d6000fd5b505050506040513d601f19601f820116820180604052508101906200038e9190620005b6565b50806200039b8162000630565b915050620002d3565b508051620003ba9060049060208401906200041c565b5050565b6000546001600160a01b031633146200041a5760405162461bcd60e51b815260206004820152601660248201527f4f6e6c792063616c6c61626c65206279206f776e657200000000000000000000604482015260640162000082565b565b82805482825590600052602060002090810192821562000474579160200282015b828111156200047457825182546001600160a01b0319166001600160a01b039091161782556020909201916001909101906200043d565b506200048292915062000486565b5090565b5b8082111562000482576000815560010162000487565b8051620004aa8162000686565b919050565b600080600060608486031215620004c557600080fd5b8351620004d28162000686565b80935050602080850151620004e78162000686565b60408601519093506001600160401b03808211156200050557600080fd5b818701915087601f8301126200051a57600080fd5b8151818111156200052f576200052f62000670565b8060051b604051601f19603f8301168101818110858211171562000557576200055762000670565b604052828152858101935084860182860187018c10156200057757600080fd5b600095505b83861015620005a55762000590816200049d565b8552600195909501949386019386016200057c565b508096505050505050509250925092565b600060208284031215620005c957600080fd5b81518015158114620005da57600080fd5b9392505050565b6020808252825182820181905260009190848201906040850190845b81811015620006245783516001600160a01b031683529284019291840191600101620005fd565b50909695505050505050565b60006000198214156200065357634e487b7160e01b600052601160045260246000fd5b5060010190565b634e487b7160e01b600052603260045260246000fd5b634e487b7160e01b600052604160045260246000fd5b6001600160a01b03811681146200069c57600080fd5b50565b6119c680620006af6000396000f3fe608060405234801561001057600080fd5b50600436106101155760003560e01c806379ba5097116100a2578063aa6ca80811610071578063aa6ca8081461022b578063b8dc491b14610240578063c77864ce14610253578063f2fde38b1461026a578063f6a6462c1461027d57600080fd5b806379ba5097146101ec57806383e22774146101f45780638da5cb5b14610207578063a128c4d21461021857600080fd5b80634585e33b116100e95780634585e33b1461017f5780635c975abb14610192578063625adaf2146101b057806362779e15146101c35780636e04ff0d146101cb57600080fd5b8062f714ce1461011a5780630d43e8ad1461012f5780631bb7ad6b146101645780633f4ba83a14610177575b600080fd5b61012d6101283660046116bf565b61028a565b005b6005546101479061010090046001600160a01b031681565b6040516001600160a01b0390911681526020015b60405180910390f35b61014761017236600461168d565b610317565b61012d610341565b61012d61018d36600461161b565b610353565b600154600160a01b900460ff165b604051901515815260200161015b565b61012d6101be36600461152d565b610567565b61012d6106d9565b6101de6101d936600461161b565b6106f1565b60405161015b9291906118a6565b61012d61086b565b600254610147906001600160a01b031681565b6000546001600160a01b0316610147565b61012d6102263660046114d0565b610915565b610233610986565b60405161015b91906117a0565b61012d61024e3660046114f4565b610ab0565b61025c60035481565b60405190815260200161015b565b61012d6102783660046114d0565b610b87565b6005546101a09060ff1681565b610292610b9b565b6001600160a01b0381166102dc5760405162461bcd60e51b815260206004820152600c60248201526b7a65726f206164647265737360a01b60448201526064015b60405180910390fd5b6040516001600160a01b0382169083156108fc029084906000818181858888f19350505050158015610312573d6000803e3d6000fd5b505050565b6004818154811061032757600080fd5b6000918252602090912001546001600160a01b0316905081565b610349610b9b565b610351610bee565b565b6002546001600160a01b0316331480159061037957506000546001600160a01b03163314155b156103c65760405162461bcd60e51b815260206004820152601d60248201527f4f6e6c79207468652052656769737472792063616e20646f207468617400000060448201526064016102d3565b6103ce610c38565b6000805b600454811015610525576000600482815481106103f1576103f161194f565b6000918252602090912001546040516370a0823160e01b81523060048201526001600160a01b03909116906370a082319060240160206040518083038186803b15801561043d57600080fd5b505afa158015610451573d6000803e3d6000fd5b505050506040513d601f19601f8201168201806040525081019061047591906116a6565b111561048057600191505b600560019054906101000a90046001600160a01b03166001600160a01b03166382aa5ad46040518163ffffffff1660e01b815260040160206040518083038186803b1580156104ce57600080fd5b505afa1580156104e2573d6000803e3d6000fd5b505050506040513d601f19601f8201168201806040525081019061050691906116a6565b6003541061051357600091505b8061051d81611926565b9150506103d2565b508061055f5760405162461bcd60e51b81526020600482015260096024820152684e6f7420726561647960b81b60448201526064016102d3565b610312610c85565b61056f610b9b565b6001815110156105c15760405162461bcd60e51b815260206004820181905260248201527f4d7573742070726f76696465206174206c65617374206f6e636520746f6b656e60448201526064016102d3565b7f9eae006c376c43541d4048d8b4bad2b209db084fcffbf07c1dc09babdb746e6f816040516105f091906117ed565b60405180910390a160005b81518110156106c1578181815181106106165761061661194f565b602090810291909101015160055460405163095ea7b360e01b81526001600160a01b0361010090920482166004820152600160801b602482015291169063095ea7b390604401602060405180830381600087803b15801561067657600080fd5b505af115801561068a573d6000803e3d6000fd5b505050506040513d601f19601f820116820180604052508101906106ae91906115f9565b50806106b981611926565b9150506105fb565b5080516106d5906004906020840190611446565b5050565b6106e1610b9b565b6106e9610c38565b610351610c85565b600060606106fd610c38565b60005b6004548110156108535760006004828154811061071f5761071f61194f565b6000918252602090912001546040516370a0823160e01b81523060048201526001600160a01b03909116906370a082319060240160206040518083038186803b15801561076b57600080fd5b505afa15801561077f573d6000803e3d6000fd5b505050506040513d601f19601f820116820180604052508101906107a391906116a6565b11156107ae57600192505b600560019054906101000a90046001600160a01b03166001600160a01b03166382aa5ad46040518163ffffffff1660e01b815260040160206040518083038186803b1580156107fc57600080fd5b505afa158015610810573d6000803e3d6000fd5b505050506040513d601f19601f8201168201806040525081019061083491906116a6565b6003541061084157600092505b8061084b81611926565b915050610700565b50506040805160208101909152600081529250929050565b6001546001600160a01b031633146108be5760405162461bcd60e51b815260206004820152601660248201527526bab9ba10313290383937b837b9b2b21037bbb732b960511b60448201526064016102d3565b60008054336001600160a01b0319808316821784556001805490911690556040516001600160a01b0390921692909183917f8be0079c531659141344cd1fd0a4f28419497f9722a3daafe3b4186f6b6457e091a350565b61091d610b9b565b600254604080516001600160a01b03928316815291831660208301527f5e67d455b7f0a74c0508e807d6e41bf2722c25fc670fa7276229bf9df459e244910160405180910390a1600280546001600160a01b0319166001600160a01b0392909216919091179055565b6060600060048054806020026020016040519081016040528092919081815260200182805480156109e057602002820191906000526020600020905b81546001600160a01b031681526001909101906020018083116109c2575b505050505090506000815167ffffffffffffffff811115610a0357610a03611965565b604051908082528060200260200182016040528015610a2c578160200160208202803683370190505b50905060005b600454811015610aa95760048181548110610a4f57610a4f61194f565b9060005260206000200160009054906101000a90046001600160a01b0316828281518110610a7f57610a7f61194f565b6001600160a01b039092166020928302919091019091015280610aa181611926565b915050610a32565b5092915050565b610ab8610b9b565b6040516370a0823160e01b81523060048201526000906001600160a01b038416906370a082319060240160206040518083038186803b158015610afa57600080fd5b505afa158015610b0e573d6000803e3d6000fd5b505050506040513d601f19601f82011682018060405250810190610b3291906116a6565b604080516001600160a01b03858116825260208201849052929350918516917f17ebca81c5f7ed9c553f76ca3f4a03b93af7d9ea1f3348a879306375452ca46f910160405180910390a261031283838361109b565b610b8f610b9b565b610b98816110ed565b50565b6000546001600160a01b031633146103515760405162461bcd60e51b815260206004820152601660248201527527b7363c9031b0b63630b1363290313c9037bbb732b960511b60448201526064016102d3565b610bf6611197565b6001805460ff60a01b191690556040805133815290517f5db9ee0a495bf2e6ff9c91a7834c1ba4fdd244a5e8aa4e537bd38aeae4b073aa9181900360200190a1565b600154600160a01b900460ff16156103515760405162461bcd60e51b815260206004820152601060248201526f14185d5cd8589b194e881c185d5cd95960821b60448201526064016102d3565b610c8d610c38565b6000600560019054906101000a90046001600160a01b03166001600160a01b03166382aa5ad46040518163ffffffff1660e01b815260040160206040518083038186803b158015610cdd57600080fd5b505afa158015610cf1573d6000803e3d6000fd5b505050506040513d601f19601f82011682018060405250810190610d1591906116a6565b90508060035410610d8e5760405162461bcd60e51b815260206004820152603860248201527f54696d65437572736572206861736e2774206368616e6765642e2020416c726560448201527f6164792072616e206f6e636520746869732065706f63682e000000000000000060648201526084016102d3565b60006004805480602002602001604051908101604052809291908181526020018280548015610de657602002820191906000526020600020905b81546001600160a01b03168152600190910190602001808311610dc8575b50505050509050600080825167ffffffffffffffff811115610e0a57610e0a611965565b604051908082528060200260200182016040528015610e33578160200160208202803683370190505b5090506000805b8451811015610fca5760055460ff1615610ef6576002858281518110610e6257610e6261194f565b60209081029190910101516040516370a0823160e01b81523060048201526001600160a01b03909116906370a082319060240160206040518083038186803b158015610ead57600080fd5b505afa158015610ec1573d6000803e3d6000fd5b505050506040513d601f19601f82011682018060405250810190610ee591906116a6565b610eef91906118d4565b9150610f8e565b848181518110610f0857610f0861194f565b60209081029190910101516040516370a0823160e01b81523060048201526001600160a01b03909116906370a082319060240160206040518083038186803b158015610f5357600080fd5b505afa158015610f67573d6000803e3d6000fd5b505050506040513d601f19601f82011682018060405250810190610f8b91906116a6565b91505b8115610fb8576001935081838281518110610fab57610fab61194f565b6020026020010181815250505b80610fc281611926565b915050610e3a565b50821561109457600554604051637b8d622160e01b81526101009091046001600160a01b031690637b8d622190611007906004908690820161183e565b600060405180830381600087803b15801561102157600080fd5b505af1158015611035573d6000803e3d6000fd5b50506005546040517facd19320e226dea93ae08c107b2e88aa5681c2c36d425adb2cda464ea4f4d64893506110749250879186918a9160ff1690611800565b60405180910390a16005805460ff19811660ff9091161517905560038590555b5050505050565b604080516001600160a01b038416602482015260448082018490528251808303909101815260649091019091526020810180516001600160e01b031663a9059cbb60e01b1790526103129084906111e7565b6001600160a01b0381163314156111465760405162461bcd60e51b815260206004820152601760248201527f43616e6e6f74207472616e7366657220746f2073656c6600000000000000000060448201526064016102d3565b600180546001600160a01b0319166001600160a01b0383811691821790925560008054604051929316917fed8889f560326eb138920d842192f0eb3dd22b4f139c87a2c57538e05bae12789190a350565b600154600160a01b900460ff166103515760405162461bcd60e51b815260206004820152601460248201527314185d5cd8589b194e881b9bdd081c185d5cd95960621b60448201526064016102d3565b600061123c826040518060400160405280602081526020017f5361666545524332303a206c6f772d6c6576656c2063616c6c206661696c6564815250856001600160a01b03166112b99092919063ffffffff16565b805190915015610312578080602001905181019061125a91906115f9565b6103125760405162461bcd60e51b815260206004820152602a60248201527f5361666545524332303a204552433230206f7065726174696f6e20646964206e6044820152691bdd081cdd58d8d9595960b21b60648201526084016102d3565b60606112c884846000856112d0565b949350505050565b6060824710156113315760405162461bcd60e51b815260206004820152602660248201527f416464726573733a20696e73756666696369656e742062616c616e636520666f6044820152651c8818d85b1b60d21b60648201526084016102d3565b600080866001600160a01b0316858760405161134d9190611784565b60006040518083038185875af1925050503d806000811461138a576040519150601f19603f3d011682016040523d82523d6000602084013e61138f565b606091505b50915091506113a0878383876113ab565b979650505050505050565b60608315611417578251611410576001600160a01b0385163b6114105760405162461bcd60e51b815260206004820152601d60248201527f416464726573733a2063616c6c20746f206e6f6e2d636f6e747261637400000060448201526064016102d3565b50816112c8565b6112c8838381511561142c5781518083602001fd5b8060405162461bcd60e51b81526004016102d391906118c1565b82805482825590600052602060002090810192821561149b579160200282015b8281111561149b57825182546001600160a01b0319166001600160a01b03909116178255602090920191600190910190611466565b506114a79291506114ab565b5090565b5b808211156114a757600081556001016114ac565b80356114cb8161197b565b919050565b6000602082840312156114e257600080fd5b81356114ed8161197b565b9392505050565b6000806040838503121561150757600080fd5b82356115128161197b565b915060208301356115228161197b565b809150509250929050565b6000602080838503121561154057600080fd5b823567ffffffffffffffff8082111561155857600080fd5b818501915085601f83011261156c57600080fd5b81358181111561157e5761157e611965565b8060051b604051601f19603f830116810181811085821117156115a3576115a3611965565b604052828152858101935084860182860187018a10156115c257600080fd5b600095505b838610156115ec576115d8816114c0565b8552600195909501949386019386016115c7565b5098975050505050505050565b60006020828403121561160b57600080fd5b815180151581146114ed57600080fd5b6000806020838503121561162e57600080fd5b823567ffffffffffffffff8082111561164657600080fd5b818501915085601f83011261165a57600080fd5b81358181111561166957600080fd5b86602082850101111561167b57600080fd5b60209290920196919550909350505050565b60006020828403121561169f57600080fd5b5035919050565b6000602082840312156116b857600080fd5b5051919050565b600080604083850312156116d257600080fd5b8235915060208301356115228161197b565b600081518084526020808501945080840160005b8381101561171d5781516001600160a01b0316875295820195908201906001016116f8565b509495945050505050565b600081518084526020808501945080840160005b8381101561171d5781518752958201959082019060010161173c565b600081518084526117708160208601602086016118f6565b601f01601f19169290920160200192915050565b600082516117968184602087016118f6565b9190910192915050565b6020808252825182820181905260009190848201906040850190845b818110156117e15783516001600160a01b0316835292840192918401916001016117bc565b50909695505050505050565b6020815260006114ed60208301846116e4565b60808152600061181360808301876116e4565b82810360208401526118258187611728565b6040840195909552505090151560609091015292915050565b6000604082016040835280855480835260608501915086600052602092508260002060005b828110156118885781546001600160a01b031684529284019260019182019101611863565b5050508381038285015261189c8186611728565b9695505050505050565b82151581526040602082015260006112c86040830184611758565b6020815260006114ed6020830184611758565b6000826118f157634e487b7160e01b600052601260045260246000fd5b500490565b60005b838110156119115781810151838201526020016118f9565b83811115611920576000848401525b50505050565b600060001982141561194857634e487b7160e01b600052601160045260246000fd5b5060010190565b634e487b7160e01b600052603260045260246000fd5b634e487b7160e01b600052604160045260246000fd5b6001600160a01b0381168114610b9857600080fdfea264697066735822122041fe8e6eb1711bc92428de4e16812f18edc70de405b0a384cfa55c26a5b94ea664736f6c63430008060033",
    "linkReferences": {}
  },
  "methodIdentifiers": {
    "acceptOwnership()": "79ba5097",
    "checkUpkeep(bytes)": "6e04ff0d",
    "feeDistributor()": "0d43e8ad",
    "getTokens()": "aa6ca808",
    "half()": "f6a6462c",
    "keeperRegistry()": "83e22774",
    "lastRunTimeCurser()": "c77864ce",
    "managedTokens(uint256)": "1bb7ad6b",
    "owner()": "8da5cb5b",
    "paused()": "5c975abb",
    "payFees()": "62779e15",
    "performUpkeep(bytes)": "4585e33b",
    "setKeeperRegistry(address)": "a128c4d2",
    "setTokens(address[])": "625adaf2",
    "sweep(address,address)": "b8dc491b",
    "transferOwnership(address)": "f2fde38b",
    "unpause()": "3f4ba83a",
    "withdraw(uint256,address)": "00f714ce"
  },
  "id": 1
}